:020000040000FA
:1000000090020010690100007101000073010000FE
:100010007501000077010000790100000000000078
:100020000000000000000000000000007B01000054
:100030007D010000000000007F0100008101000040
:1000400083010000830100008301000083010000A0
:100050008301000083010000830100008301000090
:100060008301000083010000830100008301000080
:100070008301000083010000830100008301000070
:100080008301000083010000830100008301000060
:100090008301000083010000830100008301000050
:1000A0008301000083010000830100008301000040
:1000B0008301000083010000830100008301000030
:1000C00083010000830100008301000000F002F8BA
:1000D00000F03AF80AA090E8000C82448344AAF1A8
:1000E0000107DA4501D100F02FF8AFF2090EBAE8A6
:1000F0000F0013F0010F18BFFB1A43F0010318475C
:100100003406000054060000103A24BF78C878C1B5
:10011000FAD8520724BF30C830C144BF04680C600D
:10012000704700000023002400250026103A28BF55
:1001300078C1FBD8520728BF30C148BF0B60704759
:100140001FB51FBD10B510BD00F0A6F81146FFF792
:10015000F7FF00F0C6FA00F0C4F803B4FFF7F2FFAF
:1001600003BC00F0E1FA0000094880470948004755
:10017000FEE7FEE7FEE7FEE7FEE7FEE7FEE7FEE757
:10018000FEE7FEE704480549034A054B70470000B7
:10019000A9040000CD0000009000001090020010A3
:1001A0009000001053EA020C00F069802DE9F04B3A
:1001B0004FF00006002B1FBFB3FA83F503FA05F4D6
:1001C00024FA05F65E4012BF1643B2FA82F502FA2F
:1001D00005F4C5F120051EBF22FA05FC44EA0C0413
:1001E000203556EA044C4FEA144418BF641C4FF003
:1001F00000084FF00009904271EB030C39D300293D
:1002000019BFB1FA81F701FA07F6B0FA80F700FAE0
:1002100007F6C7F120071EBF20FA07FC46EA0C06C6
:100220002037B6FBF4FCA7EB0507103F07F01F0BC8
:10023000CBF120060CFA0BFB2CFA06F644BFB346B2
:100240000026202FA4BF5E464FF0000B5BEA060C91
:1002500008BF4FF0010B19EB0B09ABFB027C48EB1D
:100260000608C01B06FB02CC0BFB03CC71EB0C0198
:10027000C1E70B46024641464846BDE8F08B13B540
:100280004FF000004FF00001AFF30080BDE81C40CC
:100290007047704770477047754600F029F8AE46C2
:1002A00005006946534620F00700854618B020B582
:1002B000FFF768FFBDE820404FF000064FF0000751
:1002C0004FF000084FF0000B21F00701AC46ACE8FE
:1002D000C009ACE8C009ACE8C009ACE8C0098D466B
:1002E00070470446AFF300802046FFF736FF00005A
:1002F000004870472C00001070470000FFFFFFFF10
:100300002DE9F04781480068C0F3016003287CD1E3
:100310007F48006810F0030006D0012833D002287F
:100320005FD003282ED100E000BF78480068C0F3FA
:10033000074000F101044FF002017648D0F8880030
:10034000C0F30E0000F10100A1FB0001724B4FF061
:10035000000CA0FB037901FB039100FB0C1122466A
:1003600063463846FFF71EFF05466C480068C0B27A
:1003700000F1010422464FF000032846FFF712FF68
:10038000674908605DE061480068C0F3074000F11C
:1003900001044FF002015F48D0F88800C0F30E005E
:1003A00000F10100A1FB00105E4A4FF0000CA1FB20
:1003B000027900FB029001FB0C012246634638469D
:1003C000FFF7F0FE054655480068C0B200F1010491
:1003D00022464FF000032846FFF7E4FE504908602C
:1003E0002FE04A480068C0F3074000F101044FF0D5
:1003F00002014848D0F88800C0F30E0000F1010067
:10040000A1FB00124FF4004000E01BE04FF000039E
:10041000A1FB007902FB009001FB03012246384654
:10042000FFF7C0FE05463D480068C0B200F1010478
:1004300022464FF000032846FFF7B4FE3849086013
:1004400000BF2FE03248006810F0030006D00128FA
:1004500010D0022819D0032823D100E000BF2F4874
:100460000068C0B200F101002B49B1FBF0F02C494B
:10047000086016E029480068C0B200F1010029496F
:10048000B1FBF0F0264908600BE024480068C0B2D8
:1004900000F101004FF40041B1FBF0F02049086089
:1004A00000BF00BFBDE8F08720201F490860194841
:1004B000D0F8A00110F0200F05D000BF1A48006846
:1004C00010F0400FFAD00320144908601748114972
:1004D000C1F8A8011648174908604FF001000C49FF
:1004E00008604FF00000A1F10401086012481349B0
:1004F00008604FF000000749C1F8C80108460068CD
:1005000020F4704040F480400860704788C00F407D
:100510000CC10F4000C00F4000093D0004C10F4056
:1005200000000010001BB700A0C10F4055515155ED
:1005300055545554ACC10F40DE872804C4C00F4049
:10054000002100E0491C8142FCD370474FF0F0606D
:100550007049C8614FF00060C8614000C8617047D1
:1005600000B5FFF7F3FF6C4800686A4948614FF037
:100570000060C861400088614FF44870FFF7E0FFF9
:100580004FF080506349C86100BD00B5034603F0D9
:10059000F0006149086008460088C0040860FFF761
:1005A000DFFF47F23050FFF7CBFF03F00F005A494F
:1005B000086008460088C0050860FFF7D1FF47F2D1
:1005C0003050FFF7BDFF00BD00B5FFF7BFFF524839
:1005D0000068504948614FF00060886140008861C0
:1005E0004FF44870FFF7ACFF4FF080504949C861A5
:1005F00000BD00B54948007800F0F00046490860A9
:1006000008460088C0040860FFF7DEFF4FF448701A
:10061000FFF796FF4148007800F00F003E49086060
:1006200008460088C0050860FFF7CEFF4FF4487009
:10063000FFF786FF00BD30B5054600240EE0285DBB
:1006400036490860FFF7D5FF641C102C06D1C02086
:10065000FFF79BFF4FF44870FFF772FF285D0028FB
:10066000EDD130BD00B52B48006840F0FC50294961
:100670000860FFF76BFF4FF44860FFF761FF33201E
:10068000FFF783FF4FF44870FFF75AFF3220FFF760
:100690007CFF4FF44870FFF753FF2820FFF775FFEA
:1006A0004FF44870FFF74CFF0C20FFF76EFF4FF43C
:1006B0004870FFF745FF0620FFF767FF4FF44870CB
:1006C000FFF73EFF0120FFF760FF4FF44870FFF790
:1006D00037FF8020FFF759FF4FF44870FFF730FFD6
:1006E00000BD00B5FFF7BEFF80200C4908604FF445
:1006F0004870FFF725FF0A48FFF79DFF0020FFF72E
:1007000044FF4FF44870FFF71BFF0648FFF793FFC5
:10071000002000BD00C009202800001024000010A7
:10072000040000100F00001001491820ABBEFEE7C6
:100730002600020054070000000000102C000000FA
:1007400008010000800700002C0000106402000077
:1007500024010000C0C62D004D49540000000000D7
:10076000000000446570742E206F662043534500DE
:100770000000000000000000000000000000000079
:04000005000000CD2A
:00000001FF
