:020000040000FA
:10000000A0020010690100007101000073010000EE
:100010007501000077010000790100000000000078
:100020000000000000000000000000007B01000054
:100030007D010000000000007F0100008101000040
:1000400083010000830100008301000083010000A0
:100050008301000083010000830100008301000090
:100060008301000083010000830100008301000080
:100070008301000083010000830100008301000070
:100080008301000083010000830100008301000060
:100090008301000083010000830100008301000050
:1000A0008301000083010000830100008301000040
:1000B0008301000083010000830100008301000030
:1000C00083010000830100008301000000F002F8BA
:1000D00000F03AF80AA090E8000C82448344AAF1A8
:1000E0000107DA4501D100F02FF8AFF2090EBAE8A6
:1000F0000F0013F0010F18BFFB1A43F0010318475C
:100100003C0600005C060000103A24BF78C878C1A5
:10011000FAD8520724BF30C830C144BF04680C600D
:10012000704700000023002400250026103A28BF55
:1001300078C1FBD8520728BF30C148BF0B60704759
:100140001FB51FBD10B510BD00F0A6F81146FFF792
:10015000F7FF00F00DFA00F0C4F803B4FFF7F2FF68
:1001600003BC00F0E5FA0000094880470948004751
:10017000FEE7FEE7FEE7FEE7FEE7FEE7FEE7FEE757
:10018000FEE7FEE704480549034A054B70470000B7
:10019000A9040000CD000000A0000010A002001083
:1001A000A000001053EA020C00F069802DE9F04B2A
:1001B0004FF00006002B1FBFB3FA83F503FA05F4D6
:1001C00024FA05F65E4012BF1643B2FA82F502FA2F
:1001D00005F4C5F120051EBF22FA05FC44EA0C0413
:1001E000203556EA044C4FEA144418BF641C4FF003
:1001F00000084FF00009904271EB030C39D300293D
:1002000019BFB1FA81F701FA07F6B0FA80F700FAE0
:1002100007F6C7F120071EBF20FA07FC46EA0C06C6
:100220002037B6FBF4FCA7EB0507103F07F01F0BC8
:10023000CBF120060CFA0BFB2CFA06F644BFB346B2
:100240000026202FA4BF5E464FF0000B5BEA060C91
:1002500008BF4FF0010B19EB0B09ABFB027C48EB1D
:100260000608C01B06FB02CC0BFB03CC71EB0C0198
:10027000C1E70B46024641464846BDE8F08B13B540
:100280004FF000004FF00001AFF30080BDE81C40CC
:100290007047704770477047754600F029F8AE46C2
:1002A00005006946534620F00700854618B020B582
:1002B000FFF768FFBDE820404FF000064FF0000751
:1002C0004FF000084FF0000B21F00701AC46ACE8FE
:1002D000C009ACE8C009ACE8C009ACE8C0098D466B
:1002E00070470446AFF300802046FFF736FF00005A
:1002F000004870473C00001070470000FFFFFFFF00
:100300002DE9F04781480068C0F3016003287CD1E3
:100310007F48006810F0030006D0012833D002287F
:100320005FD003282ED100E000BF78480068C0F3FA
:10033000074000F101044FF002017648D0F8880030
:10034000C0F30E0000F10100A1FB0001724B4FF061
:10035000000CA0FB037901FB039100FB0C1122466A
:1003600063463846FFF71EFF05466C480068C0B27A
:1003700000F1010422464FF000032846FFF712FF68
:10038000674908605DE061480068C0F3074000F11C
:1003900001044FF002015F48D0F88800C0F30E005E
:1003A00000F10100A1FB00105E4A4FF0000CA1FB20
:1003B000027900FB029001FB0C012246634638469D
:1003C000FFF7F0FE054655480068C0B200F1010491
:1003D00022464FF000032846FFF7E4FE504908602C
:1003E0002FE04A480068C0F3074000F101044FF0D5
:1003F00002014848D0F88800C0F30E0000F1010067
:10040000A1FB00124FF4004000E01BE04FF000039E
:10041000A1FB007902FB009001FB03012246384654
:10042000FFF7C0FE05463D480068C0B200F1010478
:1004300022464FF000032846FFF7B4FE3849086013
:1004400000BF2FE03248006810F0030006D00128FA
:1004500010D0022819D0032823D100E000BF2F4874
:100460000068C0B200F101002B49B1FBF0F02C494B
:10047000086016E029480068C0B200F1010029496F
:10048000B1FBF0F0264908600BE024480068C0B2D8
:1004900000F101004FF40041B1FBF0F02049086089
:1004A00000BF00BFBDE8F08720201F490860194841
:1004B000D0F8A00110F0200F05D000BF1A48006846
:1004C00010F0400FFAD00320144908601748114972
:1004D000C1F8A8011648174908604FF001000C49FF
:1004E00008604FF00000A1F10401086012481349B0
:1004F00008604FF000000749C1F8C80108460068CD
:1005000020F4704040F480400860704788C00F407D
:100510000CC10F4000C00F4000093D0004C10F4056
:1005200000000010001BB700A0C10F4055515155ED
:1005300055545554ACC10F40DE872804C4C00F4049
:10054000002000E0401CB0F57A7FFBD371490968B8
:10055000B1F57A7F06D1FF216F4A117000216D4AF3
:10056000116004E06B490968491C6A4A11607047D0
:10057000FFF79AFFFFF7C4FE684800686849084023
:10058000664908600846C06820F47F10C860654866
:10059000006840F47F60634908600846006A40F0E4
:1005A000F06008625D48006920F003005B49086163
:1005B0005C48006C60F001005A490864A9E05948A1
:1005C000406D10F0010F52D000244DE05648005D00
:1005D000564908600846006800010860084600683F
:1005E000504948616FF0C0604863002539E04E48CB
:1005F000405D4E49086008460068000108600846F2
:100600000068484948616FF0D0604863002625E0E3
:100610004548805D4549086008460068000108605B
:10062000084600683F4948616FF0E0604863002772
:1006300011E03D48C05D3D49086008460068000182
:10064000086008460068374948616FF0F060486309
:10065000FFF776FF7F1C102FEBDB761C102ED7DB0D
:100660006D1C102DC3DB641C102C52DAAEE70F2476
:100670004DE02D48005D2D490860084600680001E6
:10068000086008460068274948616FF0C060486309
:100690000F2539E02448405D244908600846006879
:1006A00000010860084600681E4948616FF0D0608C
:1006B00048630F2625E01C48805D1C4908600846F9
:1006C00000680001086008460068164948616FF03C
:1006D000E06048630F2711E01348C05D13490860CC
:1006E0000846006800010860084600680D49486136
:1006F0006FF0F0604863FFF723FF7F1E002FEBDAF7
:10070000761E002ED7DA6D1E002DC3DA641E002C73
:10071000AFDA54E7140000103100001000C00240AE
:10072000FF0000FF00C0092020000010340000106E
:1007300001491820ABBEFEE7260002005C0700005E
:10074000000000103C0000000801000098070000B5
:100750003C0000106402000024010000C0C62D000F
:100760000000000000000000000000000000000089
:100770000000000000000000000000003F065B4F8A
:10078000666D7D077F6F7B7F3C3F7C7800000000BB
:08079000000000000000000061
:04000005000000CD2A
:00000001FF
