:020000040000FA
:10000000A0020010690100007101000073010000EE
:100010007501000077010000790100000000000078
:100020000000000000000000000000007B01000054
:100030007D010000000000007F0100008101000040
:1000400083010000830100008301000083010000A0
:100050008301000083010000830100008301000090
:100060008301000083010000830100008301000080
:100070008301000083010000830100008301000070
:100080008301000083010000830100008301000060
:100090008301000083010000830100008301000050
:1000A0008301000083010000830100008301000040
:1000B0008301000083010000830100008301000030
:1000C00083010000830100008301000000F002F8BA
:1000D00000F03AF80AA090E8000C82448344AAF1A8
:1000E0000107DA4501D100F02FF8AFF2090EBAE8A6
:1000F0000F0013F0010F18BFFB1A43F0010318475C
:10010000E006000000070000103A24BF78C878C15C
:10011000FAD8520724BF30C830C144BF04680C600D
:10012000704700000023002400250026103A28BF55
:1001300078C1FBD8520728BF30C148BF0B60704759
:100140001FB51FBD10B510BD00F0A6F81146FFF792
:10015000F7FF00F06CFA00F0C4F803B4FFF7F2FF09
:1001600003BC00F037FB00000948804709480047FE
:10017000FEE7FEE7FEE7FEE7FEE7FEE7FEE7FEE757
:10018000FEE7FEE704480549034A054B70470000B7
:10019000A9040000CD000000A0000010A002001083
:1001A000A000001053EA020C00F069802DE9F04B2A
:1001B0004FF00006002B1FBFB3FA83F503FA05F4D6
:1001C00024FA05F65E4012BF1643B2FA82F502FA2F
:1001D00005F4C5F120051EBF22FA05FC44EA0C0413
:1001E000203556EA044C4FEA144418BF641C4FF003
:1001F00000084FF00009904271EB030C39D300293D
:1002000019BFB1FA81F701FA07F6B0FA80F700FAE0
:1002100007F6C7F120071EBF20FA07FC46EA0C06C6
:100220002037B6FBF4FCA7EB0507103F07F01F0BC8
:10023000CBF120060CFA0BFB2CFA06F644BFB346B2
:100240000026202FA4BF5E464FF0000B5BEA060C91
:1002500008BF4FF0010B19EB0B09ABFB027C48EB1D
:100260000608C01B06FB02CC0BFB03CC71EB0C0198
:10027000C1E70B46024641464846BDE8F08B13B540
:100280004FF000004FF00001AFF30080BDE81C40CC
:100290007047704770477047754600F029F8AE46C2
:1002A00005006946534620F00700854618B020B582
:1002B000FFF768FFBDE820404FF000064FF0000751
:1002C0004FF000084FF0000B21F00701AC46ACE8FE
:1002D000C009ACE8C009ACE8C009ACE8C0098D466B
:1002E00070470446AFF300802046FFF736FF00005A
:1002F000004870474000001070470000FFFFFFFFFC
:100300002DE9F04781480068C0F3016003287CD1E3
:100310007F48006810F0030006D0012833D002287F
:100320005FD003282ED100E000BF78480068C0F3FA
:10033000074000F101044FF002017648D0F8880030
:10034000C0F30E0000F10100A1FB0001724B4FF061
:10035000000CA0FB037901FB039100FB0C1122466A
:1003600063463846FFF71EFF05466C480068C0B27A
:1003700000F1010422464FF000032846FFF712FF68
:10038000674908605DE061480068C0F3074000F11C
:1003900001044FF002015F48D0F88800C0F30E005E
:1003A00000F10100A1FB00105E4A4FF0000CA1FB20
:1003B000027900FB029001FB0C012246634638469D
:1003C000FFF7F0FE054655480068C0B200F1010491
:1003D00022464FF000032846FFF7E4FE504908602C
:1003E0002FE04A480068C0F3074000F101044FF0D5
:1003F00002014848D0F88800C0F30E0000F1010067
:10040000A1FB00124FF4004000E01BE04FF000039E
:10041000A1FB007902FB009001FB03012246384654
:10042000FFF7C0FE05463D480068C0B200F1010478
:1004300022464FF000032846FFF7B4FE3849086013
:1004400000BF2FE03248006810F0030006D00128FA
:1004500010D0022819D0032823D100E000BF2F4874
:100460000068C0B200F101002B49B1FBF0F02C494B
:10047000086016E029480068C0B200F1010029496F
:10048000B1FBF0F0264908600BE024480068C0B2D8
:1004900000F101004FF40041B1FBF0F02049086089
:1004A00000BF00BFBDE8F08720201F490860194841
:1004B000D0F8A00110F0200F05D000BF1A48006846
:1004C00010F0400FFAD00320144908601748114972
:1004D000C1F8A8011648174908604FF001000C49FF
:1004E00008604FF00000A1F10401086012481349B0
:1004F00008604FF000000749C1F8C80108460068CD
:1005000020F4704040F480400860704788C00F407D
:100510000CC10F4000C00F4000093D0004C10F4056
:1005200000000010001BB700A0C10F4055515155ED
:1005300055545554ACC10F40DE872804C4C00F4049
:1005400097480068012808D19648006896490860D5
:100550006FF0F0609549486325E0914800680228F3
:1005600008D193480068904908606FF0E0608F49B7
:10057000486318E08A480068032808D18D4800685D
:10058000894908606FF0D060884948630BE084486F
:100590000068042807D188480068834908606FF024
:1005A000C060824948638048007800F00F007E49AF
:1005B000086082480968405C814908600846006814
:1005C00000010860084600687849486100207D49BC
:1005D000086004E07B480068401C7A49086079485C
:1005E0000068B0F5FA7FF5D34FF47F406F49C861DA
:1005F0006FF0B0604863704700204FF040210867FB
:1006000042F6DF60C860022048600120486000BFF9
:100610004FF0402080680528FAD302204FF0402197
:1006200048600846C06B40F03000C8637047FFF771
:100630003BFFFFF765FE6448006864490840624973
:1006400008600846C06820F47F10C86057480068FA
:1006500040F47F60554908600846006A40F0F06049
:1006600008625948006920F00300574908614F4863
:10067000006C60F001004D4908648FE04B48406D0C
:1006800010F0010F45D0FFF7B7FF45480068401C48
:100690004349086008460068052804D10020086026
:1006A000FF204B4908704A480078FF282ED10020CF
:1006B000474908703B480068401C3A4908600846B2
:1006C00000680F2822D10020086039480068401CCB
:1006D00037490860084600680F2817D100200860D5
:1006E00034480068401C33490860084600680F28F9
:1006F0000CD10020086030480068401C2E4908607A
:10070000084600680F2801D100200860FFF718FF95
:1007100044E0FFF771FF22480068401C2049086050
:1007200008460068052804D100200860FF202849F9
:10073000087027480078FF282ED10020244908702F
:1007400018480068401E1749086008460068401CA9
:1007500022D10F20086016480068401E1449086026
:1007600008460068401C17D10F2008601148006837
:10077000401E1049086008460068401C0CD10F203C
:1007800008600D480068401E0B4908600846006874
:10079000401C01D10F200860FFF7D2FE6EE7000079
:1007A00018000010040000101C00001000C00920F8
:1007B000080000100C0000101000001020000010B5
:1007C000340000103800001000C00240FF0000FF9D
:1007D0003100001001491820ABBEFEE726000200E0
:1007E00000080000000000104000000008010000A8
:1007F00040080000400000106002000024010000DA
:10080000C0C62D0000000000000000000000000035
:1008100000000000000000000000000000000000D8
:100820003F065B4F666D7D077F6F777F393F79713C
:1008300000000000000000000000000000000000B8
:04000005000000CD2A
:00000001FF
